{
    "contractName": "MasterChef",
    "abi": [
        {
            "inputs": [
                {
                    "internalType": "contract Sevn",
                    "name": "_SEVN",
                    "type": "address"
                },
                {
                    "internalType": "address",
                    "name": "_marketaddr",
                    "type": "address"
                },
                {
                    "internalType": "address",
                    "name": "_safuaddr",
                    "type": "address"
                },
                {
                    "internalType": "address",
                    "name": "_treasureaddr",
                    "type": "address"
                },
                {
                    "internalType": "uint256",
                    "name": "_sevnPerSec",
                    "type": "uint256"
                },
                {
                    "internalType": "uint256",
                    "name": "_startTimestamp",
                    "type": "uint256"
                },
                {
                    "internalType": "uint256",
                    "name": "_farmPercent",
                    "type": "uint256"
                },
                {
                    "internalType": "uint256",
                    "name": "_marketPercent",
                    "type": "uint256"
                },
                {
                    "internalType": "uint256",
                    "name": "_safuPercent",
                    "type": "uint256"
                },
                {
                    "internalType": "uint256",
                    "name": "_treasurePercent",
                    "type": "uint256"
                }
            ],
            "stateMutability": "nonpayable",
            "type": "constructor"
        },
        {
            "anonymous": false,
            "inputs": [
                {
                    "indexed": true,
                    "internalType": "address",
                    "name": "user",
                    "type": "address"
                },
                {
                    "indexed": true,
                    "internalType": "uint256",
                    "name": "pid",
                    "type": "uint256"
                },
                {
                    "indexed": false,
                    "internalType": "uint256",
                    "name": "amount",
                    "type": "uint256"
                }
            ],
            "name": "Deposit",
            "type": "event"
        },
        {
            "anonymous": false,
            "inputs": [
                {
                    "indexed": true,
                    "internalType": "address",
                    "name": "user",
                    "type": "address"
                },
                {
                    "indexed": true,
                    "internalType": "uint256",
                    "name": "pid",
                    "type": "uint256"
                },
                {
                    "indexed": false,
                    "internalType": "uint256",
                    "name": "amount",
                    "type": "uint256"
                }
            ],
            "name": "EmergencyWithdraw",
            "type": "event"
        },
        {
            "anonymous": false,
            "inputs": [
                {
                    "indexed": true,
                    "internalType": "address",
                    "name": "user",
                    "type": "address"
                },
                {
                    "indexed": true,
                    "internalType": "uint256",
                    "name": "pid",
                    "type": "uint256"
                },
                {
                    "indexed": false,
                    "internalType": "uint256",
                    "name": "amount",
                    "type": "uint256"
                }
            ],
            "name": "Harvest",
            "type": "event"
        },
        {
            "anonymous": false,
            "inputs": [
                {
                    "indexed": true,
                    "internalType": "address",
                    "name": "previousOwner",
                    "type": "address"
                },
                {
                    "indexed": true,
                    "internalType": "address",
                    "name": "newOwner",
                    "type": "address"
                }
            ],
            "name": "OwnershipTransferred",
            "type": "event"
        },
        {
            "anonymous": false,
            "inputs": [
                {
                    "indexed": true,
                    "internalType": "address",
                    "name": "user",
                    "type": "address"
                },
                {
                    "indexed": false,
                    "internalType": "uint256",
                    "name": "_joePerSec",
                    "type": "uint256"
                }
            ],
            "name": "UpdateEmissionRate",
            "type": "event"
        },
        {
            "anonymous": false,
            "inputs": [
                {
                    "indexed": true,
                    "internalType": "address",
                    "name": "user",
                    "type": "address"
                },
                {
                    "indexed": true,
                    "internalType": "uint256",
                    "name": "pid",
                    "type": "uint256"
                },
                {
                    "indexed": false,
                    "internalType": "uint256",
                    "name": "amount",
                    "type": "uint256"
                }
            ],
            "name": "Withdraw",
            "type": "event"
        },
        {
            "inputs": [],
            "name": "SEVN",
            "outputs": [
                {
                    "internalType": "contract Sevn",
                    "name": "",
                    "type": "address"
                }
            ],
            "stateMutability": "view",
            "type": "function",
            "constant": true
        },
        {
            "inputs": [],
            "name": "farmPercent",
            "outputs": [
                {
                    "internalType": "uint256",
                    "name": "",
                    "type": "uint256"
                }
            ],
            "stateMutability": "view",
            "type": "function",
            "constant": true
        },
        {
            "inputs": [],
            "name": "lastMarketWithdraw",
            "outputs": [
                {
                    "internalType": "uint256",
                    "name": "",
                    "type": "uint256"
                }
            ],
            "stateMutability": "view",
            "type": "function",
            "constant": true
        },
        {
            "inputs": [],
            "name": "marketPercent",
            "outputs": [
                {
                    "internalType": "uint256",
                    "name": "",
                    "type": "uint256"
                }
            ],
            "stateMutability": "view",
            "type": "function",
            "constant": true
        },
        {
            "inputs": [],
            "name": "marketaddr",
            "outputs": [
                {
                    "internalType": "address",
                    "name": "",
                    "type": "address"
                }
            ],
            "stateMutability": "view",
            "type": "function",
            "constant": true
        },
        {
            "inputs": [],
            "name": "migrator",
            "outputs": [
                {
                    "internalType": "contract IMigratorChef",
                    "name": "",
                    "type": "address"
                }
            ],
            "stateMutability": "view",
            "type": "function",
            "constant": true
        },
        {
            "inputs": [],
            "name": "owner",
            "outputs": [
                {
                    "internalType": "address",
                    "name": "",
                    "type": "address"
                }
            ],
            "stateMutability": "view",
            "type": "function",
            "constant": true
        },
        {
            "inputs": [],
            "name": "percentDec",
            "outputs": [
                {
                    "internalType": "uint256",
                    "name": "",
                    "type": "uint256"
                }
            ],
            "stateMutability": "view",
            "type": "function",
            "constant": true
        },
        {
            "inputs": [
                {
                    "internalType": "uint256",
                    "name": "",
                    "type": "uint256"
                }
            ],
            "name": "poolInfo",
            "outputs": [
                {
                    "internalType": "contract IERC20",
                    "name": "lpToken",
                    "type": "address"
                },
                {
                    "internalType": "uint256",
                    "name": "allocPoint",
                    "type": "uint256"
                },
                {
                    "internalType": "uint256",
                    "name": "lastRewardTimestamp",
                    "type": "uint256"
                },
                {
                    "internalType": "uint256",
                    "name": "accSEVNPerShare",
                    "type": "uint256"
                }
            ],
            "stateMutability": "view",
            "type": "function",
            "constant": true
        },
        {
            "inputs": [],
            "name": "renounceOwnership",
            "outputs": [],
            "stateMutability": "nonpayable",
            "type": "function"
        },
        {
            "inputs": [],
            "name": "safuPercent",
            "outputs": [
                {
                    "internalType": "uint256",
                    "name": "",
                    "type": "uint256"
                }
            ],
            "stateMutability": "view",
            "type": "function",
            "constant": true
        },
        {
            "inputs": [],
            "name": "safuaddr",
            "outputs": [
                {
                    "internalType": "address",
                    "name": "",
                    "type": "address"
                }
            ],
            "stateMutability": "view",
            "type": "function",
            "constant": true
        },
        {
            "inputs": [],
            "name": "sevnPerSec",
            "outputs": [
                {
                    "internalType": "uint256",
                    "name": "",
                    "type": "uint256"
                }
            ],
            "stateMutability": "view",
            "type": "function",
            "constant": true
        },
        {
            "inputs": [],
            "name": "startTimestamp",
            "outputs": [
                {
                    "internalType": "uint256",
                    "name": "",
                    "type": "uint256"
                }
            ],
            "stateMutability": "view",
            "type": "function",
            "constant": true
        },
        {
            "inputs": [],
            "name": "totalAllocPoint",
            "outputs": [
                {
                    "internalType": "uint256",
                    "name": "",
                    "type": "uint256"
                }
            ],
            "stateMutability": "view",
            "type": "function",
            "constant": true
        },
        {
            "inputs": [
                {
                    "internalType": "address",
                    "name": "newOwner",
                    "type": "address"
                }
            ],
            "name": "transferOwnership",
            "outputs": [],
            "stateMutability": "nonpayable",
            "type": "function"
        },
        {
            "inputs": [],
            "name": "treasurePercent",
            "outputs": [
                {
                    "internalType": "uint256",
                    "name": "",
                    "type": "uint256"
                }
            ],
            "stateMutability": "view",
            "type": "function",
            "constant": true
        },
        {
            "inputs": [],
            "name": "treasureaddr",
            "outputs": [
                {
                    "internalType": "address",
                    "name": "",
                    "type": "address"
                }
            ],
            "stateMutability": "view",
            "type": "function",
            "constant": true
        },
        {
            "inputs": [
                {
                    "internalType": "uint256",
                    "name": "",
                    "type": "uint256"
                },
                {
                    "internalType": "address",
                    "name": "",
                    "type": "address"
                }
            ],
            "name": "userInfo",
            "outputs": [
                {
                    "internalType": "uint256",
                    "name": "amount",
                    "type": "uint256"
                },
                {
                    "internalType": "uint256",
                    "name": "rewardDebt",
                    "type": "uint256"
                }
            ],
            "stateMutability": "view",
            "type": "function",
            "constant": true
        },
        {
            "inputs": [],
            "name": "poolLength",
            "outputs": [
                {
                    "internalType": "uint256",
                    "name": "",
                    "type": "uint256"
                }
            ],
            "stateMutability": "view",
            "type": "function",
            "constant": true
        },
        {
            "inputs": [],
            "name": "withdrawDevAndMarketFee",
            "outputs": [],
            "stateMutability": "nonpayable",
            "type": "function"
        },
        {
            "inputs": [
                {
                    "internalType": "uint256",
                    "name": "_allocPoint",
                    "type": "uint256"
                },
                {
                    "internalType": "contract IERC20",
                    "name": "_lpToken",
                    "type": "address"
                },
                {
                    "internalType": "bool",
                    "name": "_withUpdate",
                    "type": "bool"
                }
            ],
            "name": "add",
            "outputs": [],
            "stateMutability": "nonpayable",
            "type": "function"
        },
        {
            "inputs": [
                {
                    "internalType": "uint256",
                    "name": "_pid",
                    "type": "uint256"
                },
                {
                    "internalType": "uint256",
                    "name": "_allocPoint",
                    "type": "uint256"
                },
                {
                    "internalType": "bool",
                    "name": "_withUpdate",
                    "type": "bool"
                }
            ],
            "name": "set",
            "outputs": [],
            "stateMutability": "nonpayable",
            "type": "function"
        },
        {
            "inputs": [
                {
                    "internalType": "contract IMigratorChef",
                    "name": "_migrator",
                    "type": "address"
                }
            ],
            "name": "setMigrator",
            "outputs": [],
            "stateMutability": "nonpayable",
            "type": "function"
        },
        {
            "inputs": [
                {
                    "internalType": "uint256",
                    "name": "_pid",
                    "type": "uint256"
                }
            ],
            "name": "migrate",
            "outputs": [],
            "stateMutability": "nonpayable",
            "type": "function"
        },
        {
            "inputs": [
                {
                    "internalType": "uint256",
                    "name": "_from",
                    "type": "uint256"
                },
                {
                    "internalType": "uint256",
                    "name": "_to",
                    "type": "uint256"
                }
            ],
            "name": "getMultiplier",
            "outputs": [
                {
                    "internalType": "uint256",
                    "name": "",
                    "type": "uint256"
                }
            ],
            "stateMutability": "pure",
            "type": "function",
            "constant": true
        },
        {
            "inputs": [
                {
                    "internalType": "uint256",
                    "name": "_pid",
                    "type": "uint256"
                },
                {
                    "internalType": "address",
                    "name": "_user",
                    "type": "address"
                }
            ],
            "name": "pendingSEVN",
            "outputs": [
                {
                    "internalType": "uint256",
                    "name": "",
                    "type": "uint256"
                }
            ],
            "stateMutability": "view",
            "type": "function",
            "constant": true
        },
        {
            "inputs": [],
            "name": "massUpdatePools",
            "outputs": [],
            "stateMutability": "nonpayable",
            "type": "function"
        },
        {
            "inputs": [
                {
                    "internalType": "uint256",
                    "name": "_pid",
                    "type": "uint256"
                }
            ],
            "name": "updatePool",
            "outputs": [],
            "stateMutability": "nonpayable",
            "type": "function"
        },
        {
            "inputs": [
                {
                    "internalType": "uint256",
                    "name": "_pid",
                    "type": "uint256"
                },
                {
                    "internalType": "uint256",
                    "name": "_amount",
                    "type": "uint256"
                }
            ],
            "name": "deposit",
            "outputs": [],
            "stateMutability": "nonpayable",
            "type": "function"
        },
        {
            "inputs": [
                {
                    "internalType": "uint256",
                    "name": "_pid",
                    "type": "uint256"
                },
                {
                    "internalType": "uint256",
                    "name": "_amount",
                    "type": "uint256"
                }
            ],
            "name": "withdraw",
            "outputs": [],
            "stateMutability": "nonpayable",
            "type": "function"
        },
        {
            "inputs": [
                {
                    "internalType": "uint256",
                    "name": "_pid",
                    "type": "uint256"
                }
            ],
            "name": "emergencyWithdraw",
            "outputs": [],
            "stateMutability": "nonpayable",
            "type": "function"
        },
        {
            "inputs": [
                {
                    "internalType": "address",
                    "name": "_marketaddr",
                    "type": "address"
                }
            ],
            "name": "setMarketAddress",
            "outputs": [],
            "stateMutability": "nonpayable",
            "type": "function"
        },
        {
            "inputs": [
                {
                    "internalType": "address",
                    "name": "_treasureaddr",
                    "type": "address"
                }
            ],
            "name": "setTreasureAddress",
            "outputs": [],
            "stateMutability": "nonpayable",
            "type": "function"
        },
        {
            "inputs": [
                {
                    "internalType": "address",
                    "name": "_safuaddr",
                    "type": "address"
                }
            ],
            "name": "setSafuAddress",
            "outputs": [],
            "stateMutability": "nonpayable",
            "type": "function"
        },
        {
            "inputs": [
                {
                    "internalType": "uint256",
                    "name": "newAmount",
                    "type": "uint256"
                }
            ],
            "name": "updateSevnPerSec",
            "outputs": [],
            "stateMutability": "nonpayable",
            "type": "function"
        }
    ],
    "bytecode": "0x610140604052620f424060a0526000600b553480156200001e57600080fd5b5060405162002cc838038062002cc8833981016040819052620000419162000120565b6200004c33620000d0565b60609990991b6001600160601b031916608052600180546001600160a01b03199081166001600160a01b039a8b1617909155600280548216988a1698909817909755600380549097169590971694909417909455600591909155600c81905560c09290925260e05261010091909152610120919091526004556000600b55620001de565b600080546001600160a01b038381166001600160a01b0319831681178455604051919092169283917f8be0079c531659141344cd1fd0a4f28419497f9722a3daafe3b4186f6b6457e09190a35050565b6000806000806000806000806000806101408b8d03121562000140578586fd5b8a516200014d81620001c5565b60208c0151909a506200016081620001c5565b60408c01519099506200017381620001c5565b60608c01519098506200018681620001c5565b8097505060808b0151955060a08b0151945060c08b0151935060e08b015192506101008b015191506101208b015190509295989b9194979a5092959850565b6001600160a01b0381168114620001db57600080fd5b50565b60805160601c60a05160c05160e0516101005161012051612a20620002a86000396000818161043b01526119cc015260008181610265015261189701526000818161029f0152611762015260008181610383015281816109f20152611153015260008181610336015281816109ce0152818161112f0152818161173d0152818161187201526119a70152600081816105cc015281816111cd0152818161170f015281816118440152818161197901528181611e4b01528181611f300152611fff0152612a206000f3fe608060405234801561001057600080fd5b506004361061025b5760003560e01c8063715018a611610145578063ccf560a1116100bd578063e4d4db291161008c578063eedc5cf711610071578063eedc5cf7146105c7578063f2fde38b146105ee578063fae926121461060157600080fd5b8063e4d4db29146105b5578063e6fd48bc146105be57600080fd5b8063ccf560a114610567578063d4a3b66e1461057a578063e0dcd30d14610582578063e2bbb158146105a257600080fd5b80638da5cb5b1161011457806393f1a40b116100f957806393f1a40b14610504578063b37c760c1461054b578063c36b93321461055457600080fd5b80638da5cb5b146104d35780638dbb1e3a146104f157600080fd5b8063715018a6146104785780637251c2fa146104805780637c7be2fa146104a05780637cd07e47146104b357600080fd5b806343f3419f116101d85780635312ea8e116101a75780635a074cea1161018c5780635a074cea14610436578063630b5ba11461045d57806364482f791461046557600080fd5b80635312ea8e146103de5780635840f758146103f157600080fd5b806343f3419f1461037e578063441a3e70146103a5578063454b0608146103b857806351eb05a6146103cb57600080fd5b806317caf6f11161022f57806321b1aecb1161021457806321b1aecb1461033157806323cf3118146103585780633e0b7b9c1461036b57600080fd5b806317caf6f1146103135780631eaaa0451461031c57600080fd5b8062a2e3be146102605780630556f4f31461029a578063081e3eda146102c15780631526fe27146102c9575b600080fd5b6102877f000000000000000000000000000000000000000000000000000000000000000081565b6040519081526020015b60405180910390f35b6102877f000000000000000000000000000000000000000000000000000000000000000081565b600754610287565b6102dc6102d7366004612726565b610614565b6040805173ffffffffffffffffffffffffffffffffffffffff90951685526020850193909352918301526060820152608001610291565b610287600b5481565b61032f61032a366004612785565b610665565b005b6102877f000000000000000000000000000000000000000000000000000000000000000081565b61032f6103663660046126d2565b61083b565b610287610379366004612756565b61088a565b6102877f000000000000000000000000000000000000000000000000000000000000000081565b61032f6103b33660046127c6565b610a9f565b61032f6103c6366004612726565b610c77565b61032f6103d9366004612726565b611005565b61032f6103ec366004612726565b611295565b6001546104119073ffffffffffffffffffffffffffffffffffffffff1681565b60405173ffffffffffffffffffffffffffffffffffffffff9091168152602001610291565b6102877f000000000000000000000000000000000000000000000000000000000000000081565b61032f61136b565b61032f6104733660046127e7565b611396565b61032f611471565b6003546104119073ffffffffffffffffffffffffffffffffffffffff1681565b61032f6104ae3660046126d2565b611485565b6006546104119073ffffffffffffffffffffffffffffffffffffffff1681565b60005473ffffffffffffffffffffffffffffffffffffffff16610411565b6102876104ff3660046127c6565b6114d4565b610536610512366004612756565b600a6020908152600092835260408084209091529082529020805460019091015482565b60408051928352602083019190915201610291565b61028760055481565b61032f6105623660046126d2565b6114e7565b61032f610575366004612726565b611536565b61032f611660565b6002546104119073ffffffffffffffffffffffffffffffffffffffff1681565b61032f6105b03660046127c6565b611a9c565b61028760045481565b610287600c5481565b6104117f000000000000000000000000000000000000000000000000000000000000000081565b61032f6105fc3660046126d2565b611c12565b61032f61060f3660046126d2565b611cc9565b6007818154811061062457600080fd5b6000918252602090912060049091020180546001820154600283015460039093015473ffffffffffffffffffffffffffffffffffffffff9092169350919084565b61066d611d18565b610678600883611d99565b156106e4576040517f08c379a000000000000000000000000000000000000000000000000000000000815260206004820152601560248201527f6164643a204c5020616c7265616479206164646564000000000000000000000060448201526064015b60405180910390fd5b80156106f2576106f261136b565b6000600c54421161070557600c54610707565b425b600b549091506107179085611dc8565b600b556040805160808101825273ffffffffffffffffffffffffffffffffffffffff85811682526020820187815292820184815260006060840181815260078054600181018255925293517fa66cc928b5edb82af9bd49922954155ab7b0942694bea4ce44661d9a8736c688600490920291820180547fffffffffffffffffffffffff000000000000000000000000000000000000000016919094161790925592517fa66cc928b5edb82af9bd49922954155ab7b0942694bea4ce44661d9a8736c68982015591517fa66cc928b5edb82af9bd49922954155ab7b0942694bea4ce44661d9a8736c68a830155517fa66cc928b5edb82af9bd49922954155ab7b0942694bea4ce44661d9a8736c68b90910155610834600884611dd4565b5050505050565b610843611d18565b600680547fffffffffffffffffffffffff00000000000000000000000000000000000000001673ffffffffffffffffffffffffffffffffffffffff92909216919091179055565b600080600784815481106108c7577f4e487b7100000000000000000000000000000000000000000000000000000000600052603260045260246000fd5b60009182526020808320878452600a8252604080852073ffffffffffffffffffffffffffffffffffffffff8981168752935280852060049485029092016003810154815492517f70a08231000000000000000000000000000000000000000000000000000000008152309681019690965290965091949193919216906370a082319060240160206040518083038186803b15801561096457600080fd5b505afa158015610978573d6000803e3d6000fd5b505050506040513d601f19601f8201168201806040525081019061099c919061273e565b90508360020154421180156109b057508015155b15610a645760006109c58560020154426114d4565b90506000610a407f0000000000000000000000000000000000000000000000000000000000000000610a3a7f0000000000000000000000000000000000000000000000000000000000000000610a34600b54610a3a8c60010154610a346005548b611df690919063ffffffff16565b90611df6565b90611e02565b9050610a5f610a5884610a3a8464e8d4a51000611df6565b8590611dc8565b935050505b610a928360010154610a8c64e8d4a51000610a3a868860000154611df690919063ffffffff16565b90611e0e565b9450505050505b92915050565b600060078381548110610adb577f4e487b7100000000000000000000000000000000000000000000000000000000600052603260045260246000fd5b60009182526020808320868452600a825260408085203386529092529220805460049092029092019250831115610b6e576040517f08c379a000000000000000000000000000000000000000000000000000000000815260206004820152601260248201527f77697468647261773a206e6f7420676f6f64000000000000000000000000000060448201526064016106db565b610b7784611005565b6000610ba58260010154610a8c64e8d4a51000610a3a87600301548760000154611df690919063ffffffff16565b9050610bb13382611e1a565b604051818152859033907f71bab65ced2e5750775a0613be067df48ef06cf92a496ebf7663ae06609249549060200160405180910390a38154610bf49085611e0e565b8083556003840154610c119164e8d4a5100091610a3a9190611df6565b60018301558254610c399073ffffffffffffffffffffffffffffffffffffffff163386612033565b604051848152859033907ff279e6a1f5e320cca91135676d9cb6e44ca8a08c0b88342bcdb1144f6511b5689060200160405180910390a35050505050565b60065473ffffffffffffffffffffffffffffffffffffffff16610cf6576040517f08c379a000000000000000000000000000000000000000000000000000000000815260206004820152601460248201527f6d6967726174653a206e6f206d69677261746f7200000000000000000000000060448201526064016106db565b600060078281548110610d32577f4e487b7100000000000000000000000000000000000000000000000000000000600052603260045260246000fd5b60009182526020822060049182020180546040517f70a08231000000000000000000000000000000000000000000000000000000008152309381019390935290935073ffffffffffffffffffffffffffffffffffffffff16919082906370a082319060240160206040518083038186803b158015610daf57600080fd5b505afa158015610dc3573d6000803e3d6000fd5b505050506040513d601f19601f82011682018060405250810190610de7919061273e565b600654909150610e119073ffffffffffffffffffffffffffffffffffffffff848116911683612107565b6006546040517fce5494bb00000000000000000000000000000000000000000000000000000000815273ffffffffffffffffffffffffffffffffffffffff8481166004830152600092169063ce5494bb90602401602060405180830381600087803b158015610e7f57600080fd5b505af1158015610e93573d6000803e3d6000fd5b505050506040513d601f19601f82011682018060405250810190610eb7919061270a565b6040517f70a0823100000000000000000000000000000000000000000000000000000000815230600482015290915073ffffffffffffffffffffffffffffffffffffffff8216906370a082319060240160206040518083038186803b158015610f1f57600080fd5b505afa158015610f33573d6000803e3d6000fd5b505050506040513d601f19601f82011682018060405250810190610f57919061273e565b8214610fbf576040517f08c379a000000000000000000000000000000000000000000000000000000000815260206004820152600c60248201527f6d6967726174653a20626164000000000000000000000000000000000000000060448201526064016106db565b83547fffffffffffffffffffffffff00000000000000000000000000000000000000001673ffffffffffffffffffffffffffffffffffffffff9190911617909255505050565b600060078281548110611041577f4e487b7100000000000000000000000000000000000000000000000000000000600052603260045260246000fd5b9060005260206000209060040201905080600201544211611060575050565b80546040517f70a0823100000000000000000000000000000000000000000000000000000000815230600482015260009173ffffffffffffffffffffffffffffffffffffffff16906370a082319060240160206040518083038186803b1580156110c957600080fd5b505afa1580156110dd573d6000803e3d6000fd5b505050506040513d601f19601f82011682018060405250810190611101919061273e565b90506000811161111657504260029091015550565b60006111268360020154426114d4565b905060006111957f0000000000000000000000000000000000000000000000000000000000000000610a3a7f0000000000000000000000000000000000000000000000000000000000000000610a34600b54610a3a8a60010154610a346005548b611df690919063ffffffff16565b6040517f40c10f19000000000000000000000000000000000000000000000000000000008152306004820152602481018290529091507f000000000000000000000000000000000000000000000000000000000000000073ffffffffffffffffffffffffffffffffffffffff16906340c10f1990604401602060405180830381600087803b15801561122657600080fd5b505af115801561123a573d6000803e3d6000fd5b505050506040513d601f19601f8201168201806040525081019061125e91906126ee565b5061128061127584610a3a8464e8d4a51000611df6565b600386015490611dc8565b60038501555050426002909201919091555050565b6000600782815481106112d1577f4e487b7100000000000000000000000000000000000000000000000000000000600052603260045260246000fd5b60009182526020808320858452600a825260408085203380875293529093208054600490930290930180549094506113239273ffffffffffffffffffffffffffffffffffffffff919091169190612033565b8054604051908152839033907fbb757047c2b5f3974fe26b7c10f732e7bce710b0952a71082702781e62ae05959060200160405180910390a360008082556001909101555050565b60075460005b818110156113925761138281611005565b61138b81612952565b9050611371565b5050565b61139e611d18565b80156113ac576113ac61136b565b61141682611410600786815481106113ed577f4e487b7100000000000000000000000000000000000000000000000000000000600052603260045260246000fd5b906000526020600020906004020160010154600b54611e0e90919063ffffffff16565b90611dc8565b600b819055508160078481548110611457577f4e487b7100000000000000000000000000000000000000000000000000000000600052603260045260246000fd5b906000526020600020906004020160010181905550505050565b611479611d18565b6114836000612298565b565b61148d611d18565b600280547fffffffffffffffffffffffff00000000000000000000000000000000000000001673ffffffffffffffffffffffffffffffffffffffff92909216919091179055565b60006114e08284611e0e565b9392505050565b6114ef611d18565b600380547fffffffffffffffffffffffff00000000000000000000000000000000000000001673ffffffffffffffffffffffffffffffffffffffff92909216919091179055565b61153e611d18565b683635c9adc5dea000008111156115b1576040517f08c379a000000000000000000000000000000000000000000000000000000000815260206004820152601860248201527f4d617820706572207365636f6e642031303030205345564e000000000000000060448201526064016106db565b670de0b6b3a7640000811015611623576040517f08c379a000000000000000000000000000000000000000000000000000000000815260206004820152601560248201527f4d696e20706572207365636f6e642031205345564e000000000000000000000060448201526064016106db565b600581905560405181815233907fe2492e003bbe8afa53088b406f0c1cb5d9e280370fc72a74cf116ffd343c40539060200160405180910390a250565b42600454106116cb576040517f08c379a000000000000000000000000000000000000000000000000000000000815260206004820152601260248201527f7761697420666f72206e657720626c6f636b000000000000000000000000000060448201526064016106db565b60006116d9600454426114d4565b905060006116f260055483611df690919063ffffffff16565b60015490915073ffffffffffffffffffffffffffffffffffffffff7f00000000000000000000000000000000000000000000000000000000000000008116916340c10f1991166117867f0000000000000000000000000000000000000000000000000000000000000000610a3a867f0000000000000000000000000000000000000000000000000000000000000000611df6565b6040517fffffffff0000000000000000000000000000000000000000000000000000000060e085901b16815273ffffffffffffffffffffffffffffffffffffffff90921660048301526024820152604401602060405180830381600087803b1580156117f157600080fd5b505af1158015611805573d6000803e3d6000fd5b505050506040513d601f19601f8201168201806040525081019061182991906126ee565b5060025473ffffffffffffffffffffffffffffffffffffffff7f00000000000000000000000000000000000000000000000000000000000000008116916340c10f1991166118bb7f0000000000000000000000000000000000000000000000000000000000000000610a3a867f0000000000000000000000000000000000000000000000000000000000000000611df6565b6040517fffffffff0000000000000000000000000000000000000000000000000000000060e085901b16815273ffffffffffffffffffffffffffffffffffffffff90921660048301526024820152604401602060405180830381600087803b15801561192657600080fd5b505af115801561193a573d6000803e3d6000fd5b505050506040513d601f19601f8201168201806040525081019061195e91906126ee565b5060035473ffffffffffffffffffffffffffffffffffffffff7f00000000000000000000000000000000000000000000000000000000000000008116916340c10f1991166119f07f0000000000000000000000000000000000000000000000000000000000000000610a3a867f0000000000000000000000000000000000000000000000000000000000000000611df6565b6040517fffffffff0000000000000000000000000000000000000000000000000000000060e085901b16815273ffffffffffffffffffffffffffffffffffffffff90921660048301526024820152604401602060405180830381600087803b158015611a5b57600080fd5b505af1158015611a6f573d6000803e3d6000fd5b505050506040513d601f19601f82011682018060405250810190611a9391906126ee565b50504260045550565b600060078381548110611ad8577f4e487b7100000000000000000000000000000000000000000000000000000000600052603260045260246000fd5b60009182526020808320868452600a82526040808520338652909252922060049091029091019150611b0984611005565b805415611b83576000611b3e8260010154610a8c64e8d4a51000610a3a87600301548760000154611df690919063ffffffff16565b9050611b4a3382611e1a565b604051818152859033907f71bab65ced2e5750775a0613be067df48ef06cf92a496ebf7663ae06609249549060200160405180910390a3505b8154611ba79073ffffffffffffffffffffffffffffffffffffffff1633308661230d565b8054611bb39084611dc8565b8082556003830154611bd09164e8d4a5100091610a3a9190611df6565b6001820155604051838152849033907f90890809c654f11d6e72a28fa60149770a0d11ec6c92319d6ceb2bb0a4ea1a159060200160405180910390a350505050565b611c1a611d18565b73ffffffffffffffffffffffffffffffffffffffff8116611cbd576040517f08c379a000000000000000000000000000000000000000000000000000000000815260206004820152602660248201527f4f776e61626c653a206e6577206f776e657220697320746865207a65726f206160448201527f646472657373000000000000000000000000000000000000000000000000000060648201526084016106db565b611cc681612298565b50565b611cd1611d18565b600180547fffffffffffffffffffffffff00000000000000000000000000000000000000001673ffffffffffffffffffffffffffffffffffffffff92909216919091179055565b60005473ffffffffffffffffffffffffffffffffffffffff163314611483576040517f08c379a000000000000000000000000000000000000000000000000000000000815260206004820181905260248201527f4f776e61626c653a2063616c6c6572206973206e6f7420746865206f776e657260448201526064016106db565b73ffffffffffffffffffffffffffffffffffffffff8116600090815260018301602052604081205415156114e0565b60006114e08284612881565b60006114e08373ffffffffffffffffffffffffffffffffffffffff841661236b565b60006114e082846128d2565b60006114e08284612899565b60006114e0828461290f565b6040517f70a082310000000000000000000000000000000000000000000000000000000081523060048201526000907f000000000000000000000000000000000000000000000000000000000000000073ffffffffffffffffffffffffffffffffffffffff16906370a082319060240160206040518083038186803b158015611ea257600080fd5b505afa158015611eb6573d6000803e3d6000fd5b505050506040513d601f19601f82011682018060405250810190611eda919061273e565b905080821115611fb3576040517fa9059cbb00000000000000000000000000000000000000000000000000000000815273ffffffffffffffffffffffffffffffffffffffff8481166004830152602482018390527f0000000000000000000000000000000000000000000000000000000000000000169063a9059cbb906044015b602060405180830381600087803b158015611f7557600080fd5b505af1158015611f89573d6000803e3d6000fd5b505050506040513d601f19601f82011682018060405250810190611fad91906126ee565b50505050565b6040517fa9059cbb00000000000000000000000000000000000000000000000000000000815273ffffffffffffffffffffffffffffffffffffffff8481166004830152602482018490527f0000000000000000000000000000000000000000000000000000000000000000169063a9059cbb90604401611f5b565b505050565b60405173ffffffffffffffffffffffffffffffffffffffff831660248201526044810182905261202e9084907fa9059cbb00000000000000000000000000000000000000000000000000000000906064015b604080517fffffffffffffffffffffffffffffffffffffffffffffffffffffffffffffffe08184030181529190526020810180517bffffffffffffffffffffffffffffffffffffffffffffffffffffffff167fffffffff00000000000000000000000000000000000000000000000000000000909316929092179091526123ba565b8015806121b657506040517fdd62ed3e00000000000000000000000000000000000000000000000000000000815230600482015273ffffffffffffffffffffffffffffffffffffffff838116602483015284169063dd62ed3e9060440160206040518083038186803b15801561217c57600080fd5b505afa158015612190573d6000803e3d6000fd5b505050506040513d601f19601f820116820180604052508101906121b4919061273e565b155b612242576040517f08c379a000000000000000000000000000000000000000000000000000000000815260206004820152603660248201527f5361666545524332303a20617070726f76652066726f6d206e6f6e2d7a65726f60448201527f20746f206e6f6e2d7a65726f20616c6c6f77616e63650000000000000000000060648201526084016106db565b60405173ffffffffffffffffffffffffffffffffffffffff831660248201526044810182905261202e9084907f095ea7b30000000000000000000000000000000000000000000000000000000090606401612085565b6000805473ffffffffffffffffffffffffffffffffffffffff8381167fffffffffffffffffffffffff0000000000000000000000000000000000000000831681178455604051919092169283917f8be0079c531659141344cd1fd0a4f28419497f9722a3daafe3b4186f6b6457e09190a35050565b60405173ffffffffffffffffffffffffffffffffffffffff80851660248301528316604482015260648101829052611fad9085907f23b872dd0000000000000000000000000000000000000000000000000000000090608401612085565b60008181526001830160205260408120546123b257508154600181810184556000848152602080822090930184905584548482528286019093526040902091909155610a99565b506000610a99565b600061241c826040518060400160405280602081526020017f5361666545524332303a206c6f772d6c6576656c2063616c6c206661696c65648152508573ffffffffffffffffffffffffffffffffffffffff166124c69092919063ffffffff16565b80519091501561202e578080602001905181019061243a91906126ee565b61202e576040517f08c379a000000000000000000000000000000000000000000000000000000000815260206004820152602a60248201527f5361666545524332303a204552433230206f7065726174696f6e20646964206e60448201527f6f7420737563636565640000000000000000000000000000000000000000000060648201526084016106db565b60606124d584846000856124dd565b949350505050565b60608247101561256f576040517f08c379a000000000000000000000000000000000000000000000000000000000815260206004820152602660248201527f416464726573733a20696e73756666696369656e742062616c616e636520666f60448201527f722063616c6c000000000000000000000000000000000000000000000000000060648201526084016106db565b6000808673ffffffffffffffffffffffffffffffffffffffff1685876040516125989190612814565b60006040518083038185875af1925050503d80600081146125d5576040519150601f19603f3d011682016040523d82523d6000602084013e6125da565b606091505b50915091506125eb878383876125f6565b979650505050505050565b606083156126895782516126825773ffffffffffffffffffffffffffffffffffffffff85163b612682576040517f08c379a000000000000000000000000000000000000000000000000000000000815260206004820152601d60248201527f416464726573733a2063616c6c20746f206e6f6e2d636f6e747261637400000060448201526064016106db565b50816124d5565b6124d5838381511561269e5781518083602001fd5b806040517f08c379a00000000000000000000000000000000000000000000000000000000081526004016106db9190612830565b6000602082840312156126e3578081fd5b81356114e0816129ba565b6000602082840312156126ff578081fd5b81516114e0816129dc565b60006020828403121561271b578081fd5b81516114e0816129ba565b600060208284031215612737578081fd5b5035919050565b60006020828403121561274f578081fd5b5051919050565b60008060408385031215612768578081fd5b82359150602083013561277a816129ba565b809150509250929050565b600080600060608486031215612799578081fd5b8335925060208401356127ab816129ba565b915060408401356127bb816129dc565b809150509250925092565b600080604083850312156127d8578182fd5b50508035926020909101359150565b6000806000606084860312156127fb578283fd5b833592506020840135915060408401356127bb816129dc565b60008251612826818460208701612926565b9190910192915050565b602081526000825180602084015261284f816040850160208701612926565b601f017fffffffffffffffffffffffffffffffffffffffffffffffffffffffffffffffe0169190910160400192915050565b600082198211156128945761289461298b565b500190565b6000826128cd577f4e487b710000000000000000000000000000000000000000000000000000000081526012600452602481fd5b500490565b6000817fffffffffffffffffffffffffffffffffffffffffffffffffffffffffffffffff048311821515161561290a5761290a61298b565b500290565b6000828210156129215761292161298b565b500390565b60005b83811015612941578181015183820152602001612929565b83811115611fad5750506000910152565b60007fffffffffffffffffffffffffffffffffffffffffffffffffffffffffffffffff8214156129845761298461298b565b5060010190565b7f4e487b7100000000000000000000000000000000000000000000000000000000600052601160045260246000fd5b73ffffffffffffffffffffffffffffffffffffffff81168114611cc657600080fd5b8015158114611cc657600080fdfea2646970667358221220dcf807526faa68d69f1411ff96ed021174d5f31b9e2954c46b4b41a7e4956b3164736f6c63430008040033",
    "immutableReferences": {
        "2436": [
            {
                "length": 32,
                "start": 1484
            },
            {
                "length": 32,
                "start": 4557
            },
            {
                "length": 32,
                "start": 5903
            },
            {
                "length": 32,
                "start": 6212
            },
            {
                "length": 32,
                "start": 6521
            },
            {
                "length": 32,
                "start": 7755
            },
            {
                "length": 32,
                "start": 7984
            },
            {
                "length": 32,
                "start": 8191
            }
        ],
        "2439": [
            {
                "length": 32,
                "start": 822
            },
            {
                "length": 32,
                "start": 2510
            },
            {
                "length": 32,
                "start": 4399
            },
            {
                "length": 32,
                "start": 5949
            },
            {
                "length": 32,
                "start": 6258
            },
            {
                "length": 32,
                "start": 6567
            }
        ],
        "2441": [
            {
                "length": 32,
                "start": 899
            },
            {
                "length": 32,
                "start": 2546
            },
            {
                "length": 32,
                "start": 4435
            }
        ],
        "2443": [
            {
                "length": 32,
                "start": 671
            },
            {
                "length": 32,
                "start": 5986
            }
        ],
        "2445": [
            {
                "length": 32,
                "start": 613
            },
            {
                "length": 32,
                "start": 6295
            }
        ],
        "2447": [
            {
                "length": 32,
                "start": 1083
            },
            {
                "length": 32,
                "start": 6604
            }
        ]
    },
    "source": "// SPDX-License-Identifier: MIT\n\npragma solidity 0.8.4;\n\nimport \"@openzeppelin/contracts/access/Ownable.sol\";\nimport \"@openzeppelin/contracts/utils/math/SafeMath.sol\";\nimport \"@openzeppelin/contracts/utils/structs/EnumerableSet.sol\";\nimport \"@openzeppelin/contracts/token/ERC20/IERC20.sol\";\nimport \"@openzeppelin/contracts/token/ERC20/utils/SafeERC20.sol\";\n\nimport \"./interfaces/IMasterChef.sol\";\nimport \"./libs/Sevn.sol\";\n\n// MasterChef is the master of SEVN. He can make SEVN and he is a fair guy.\n//\n// Note that it's ownable and the owner wields tremendous power. The ownership\n// will be transferred to a governance smart contract once SEVN is sufficiently\n// distributed and the community can show to govern itself.\n//\n// Have fun reading it. Hopefully it's bug-free. God bless.\ncontract MasterChef is Ownable {\n    using SafeMath for uint256;\n    using SafeERC20 for IERC20;\n    using EnumerableSet for EnumerableSet.AddressSet;\n\n    // Info of each user.\n    struct UserInfo {\n        uint256 amount; // How many LP tokens the user has provided.\n        uint256 rewardDebt; // Reward debt. See explanation below.\n        //\n        // We do some fancy math here. Basically, any point in time, the amount of SEVNs\n        // entitled to a user but is pending to be distributed is:\n        //\n        //   pending reward = (user.amount * pool.accSEVNPerShare) - user.rewardDebt\n        //\n        // Whenever a user deposits or withdraws LP tokens to a pool. Here's what happens:\n        //   1. The pool's `accSEVNPerShare` (and `lastRewardTimestamp`) gets updated.\n        //   2. User receives the pending reward sent to his/her address.\n        //   3. User's `amount` gets updated.\n        //   4. User's `rewardDebt` gets updated.\n    }\n    // Info of each pool.\n    struct PoolInfo {\n        IERC20 lpToken; // Address of LP token contract.\n        uint256 allocPoint; // How many allocation points assigned to this pool. SEVNs to distribute per block.\n        uint256 lastRewardTimestamp; // Last block number that SEVNs distribution occurs.\n        uint256 accSEVNPerShare; // Accumulated SEVNs per share, times 1e12. See below.\n    }\n    // The Sevn TOKEN!\n    Sevn public immutable SEVN;\n    //Pools, Farms, Market, Safu percent decimals\n    uint256 public immutable percentDec = 1000000;\n    //Farms percent from token per block\n    uint256 public immutable farmPercent;\n    //Developers percent from token per block\n    uint256 public immutable marketPercent;\n    //Safu fund percent from token per block\n    uint256 public immutable safuPercent;\n    //Treasure fund percent from token per block\n    uint256 public immutable treasurePercent;\n\n    // Market address.\n    address public marketaddr;\n    // Safu fund.\n    address public safuaddr;\n    // Treasure fund.\n    address public treasureaddr;\n\n    // Last timestamp then develeper withdraw market and safu fee\n    uint256 public lastMarketWithdraw;\n    // SEVN tokens created per second.\n    uint256 public sevnPerSec;\n\n    // The migrator contract. It has a lot of power. Can only be set through governance (owner).\n    IMigratorChef public migrator;\n    // Info of each pool.\n    PoolInfo[] public poolInfo;\n    // Set of all LP tokens that have been added as pools\n    EnumerableSet.AddressSet private lpTokens;\n    // Info of each user that stakes LP tokens.\n    mapping(uint256 => mapping(address => UserInfo)) public userInfo;\n\n    // Total allocation poitns. Must be the sum of all allocation points in all pools.\n    uint256 public totalAllocPoint = 0;\n    // The timestamp when SEVN mining starts.\n    uint256 public startTimestamp;\n\n    event Deposit(address indexed user, uint256 indexed pid, uint256 amount);\n    event Withdraw(address indexed user, uint256 indexed pid, uint256 amount);\n    event Harvest(address indexed user, uint256 indexed pid, uint256 amount);\n    event EmergencyWithdraw(\n        address indexed user,\n        uint256 indexed pid,\n        uint256 amount\n    );\n    event UpdateEmissionRate(address indexed user, uint256 _joePerSec);\n\n    constructor(\n        Sevn _SEVN,\n        address _marketaddr,\n        address _safuaddr,\n        address _treasureaddr,\n        uint256 _sevnPerSec,\n        uint256 _startTimestamp,\n        uint256 _farmPercent,\n        uint256 _marketPercent,\n        uint256 _safuPercent,\n        uint256 _treasurePercent\n    ) {\n        SEVN = _SEVN;\n        marketaddr = _marketaddr;\n        safuaddr = _safuaddr;\n        treasureaddr = _treasureaddr;\n        sevnPerSec = _sevnPerSec;\n        startTimestamp = _startTimestamp;\n        farmPercent = _farmPercent;\n        marketPercent = _marketPercent;\n        safuPercent = _safuPercent;\n        treasurePercent = _treasurePercent;\n        lastMarketWithdraw = _startTimestamp;\n        totalAllocPoint = 0;\n    }\n\n    function poolLength() external view returns (uint256) {\n        return poolInfo.length;\n    }\n\n    function withdrawDevAndMarketFee() external {\n        require(\n            lastMarketWithdraw < block.timestamp,\n            \"wait for new block\"\n        );\n        uint256 multiplier = getMultiplier(\n            lastMarketWithdraw,\n            block.timestamp\n        );\n        uint256 SEVNReward = multiplier.mul(sevnPerSec);\n        SEVN.mint(marketaddr, SEVNReward.mul(marketPercent).div(percentDec));\n        SEVN.mint(safuaddr, SEVNReward.mul(safuPercent).div(percentDec));\n        SEVN.mint(\n            treasureaddr,\n            SEVNReward.mul(treasurePercent).div(percentDec)\n        );\n        lastMarketWithdraw = block.timestamp;\n    }\n\n    // Add a new lp to the pool. Can only be called by the owner.\n    // XXX DO NOT add the same LP token more than once. Rewards will be messed up if you do.\n    function add(\n        uint256 _allocPoint,\n        IERC20 _lpToken,\n        bool _withUpdate\n    ) external onlyOwner {\n        require(!lpTokens.contains(address(_lpToken)), \"add: LP already added\");\n\n        if (_withUpdate) {\n            massUpdatePools();\n        }\n        uint256 lastRewardTimestamp = block.timestamp > startTimestamp\n            ? block.timestamp\n            : startTimestamp;\n        totalAllocPoint = totalAllocPoint.add(_allocPoint);\n        poolInfo.push(\n            PoolInfo({\n                lpToken: _lpToken,\n                allocPoint: _allocPoint,\n                lastRewardTimestamp: lastRewardTimestamp,\n                accSEVNPerShare: 0\n            })\n        );\n\n        lpTokens.add(address(_lpToken));\n    }\n\n    // Update the given pool's SEVN allocation point. Can only be called by the owner.\n    function set(\n        uint256 _pid,\n        uint256 _allocPoint,\n        bool _withUpdate\n    ) external onlyOwner {\n        if (_withUpdate) {\n            massUpdatePools();\n        }\n        totalAllocPoint = totalAllocPoint.sub(poolInfo[_pid].allocPoint).add(\n            _allocPoint\n        );\n        poolInfo[_pid].allocPoint = _allocPoint;\n    }\n\n    // Set the migrator contract. Can only be called by the owner.\n    function setMigrator(IMigratorChef _migrator) external onlyOwner {\n        migrator = _migrator;\n    }\n\n    // Migrate lp token to another lp contract. Can be called by anyone. We trust that migrator contract is good.\n    function migrate(uint256 _pid) external {\n        require(address(migrator) != address(0), \"migrate: no migrator\");\n        PoolInfo storage pool = poolInfo[_pid];\n        IERC20 lpToken = pool.lpToken;\n        uint256 bal = lpToken.balanceOf(address(this));\n        lpToken.safeApprove(address(migrator), bal);\n        IERC20 newLpToken = migrator.migrate(lpToken);\n        require(bal == newLpToken.balanceOf(address(this)), \"migrate: bad\");\n        pool.lpToken = newLpToken;\n    }\n\n    // Return reward multiplier over the given _from to _to timestamp.\n    function getMultiplier(uint256 _from, uint256 _to)\n        public\n        pure\n        returns (uint256)\n    {\n        return _to.sub(_from);\n    }\n\n    // View function to see pending SEVNs on frontend.\n    function pendingSEVN(uint256 _pid, address _user)\n        external\n        view\n        returns (uint256)\n    {\n        PoolInfo storage pool = poolInfo[_pid];\n        UserInfo storage user = userInfo[_pid][_user];\n        uint256 accSEVNPerShare = pool.accSEVNPerShare;\n        uint256 lpSupply = pool.lpToken.balanceOf(address(this));\n\n        if (block.timestamp > pool.lastRewardTimestamp && lpSupply != 0) {\n            uint256 multiplier = getMultiplier(\n                pool.lastRewardTimestamp,\n                block.timestamp\n            );\n            uint256 SEVNReward = multiplier\n                .mul(sevnPerSec)\n                .mul(pool.allocPoint)\n                .div(totalAllocPoint)\n                .mul(farmPercent)\n                .div(percentDec);\n            accSEVNPerShare = accSEVNPerShare.add(\n                SEVNReward.mul(1e12).div(lpSupply)\n            );\n        }\n        return user.amount.mul(accSEVNPerShare).div(1e12).sub(user.rewardDebt);\n    }\n\n    // Update reward vairables for all pools. Be careful of gas spending!\n    function massUpdatePools() public {\n        uint256 length = poolInfo.length;\n        for (uint256 pid = 0; pid < length; ++pid) {\n            updatePool(pid);\n        }\n    }\n\n    // Update reward variables of the given pool to be up-to-date.\n    function updatePool(uint256 _pid) public {\n        PoolInfo storage pool = poolInfo[_pid];\n        if (block.timestamp <= pool.lastRewardTimestamp) {\n            return;\n        }\n        uint256 lpSupply = pool.lpToken.balanceOf(address(this));\n\n        if (lpSupply <= 0) {\n            pool.lastRewardTimestamp = block.timestamp;\n            return;\n        }\n        uint256 multiplier = getMultiplier(\n            pool.lastRewardTimestamp,\n            block.timestamp\n        );\n        uint256 SEVNReward = multiplier\n            .mul(sevnPerSec)\n            .mul(pool.allocPoint)\n            .div(totalAllocPoint)\n            .mul(farmPercent)\n            .div(percentDec);\n\n        SEVN.mint(address(this), SEVNReward);\n        pool.accSEVNPerShare = pool.accSEVNPerShare.add(\n            SEVNReward.mul(1e12).div(lpSupply)\n        );\n        pool.lastRewardTimestamp = block.timestamp;\n    }\n\n    // Deposit LP tokens to MasterChef for SEVN allocation.\n    function deposit(uint256 _pid, uint256 _amount) external {\n        PoolInfo storage pool = poolInfo[_pid];\n        UserInfo storage user = userInfo[_pid][msg.sender];\n        updatePool(_pid);\n        if (user.amount > 0) {\n            // Harvest SEVN\n            uint256 pending = user\n                .amount\n                .mul(pool.accSEVNPerShare)\n                .div(1e12)\n                .sub(user.rewardDebt);\n            safeSEVNTransfer(msg.sender, pending);\n            emit Harvest(msg.sender, _pid, pending);\n        }\n        pool.lpToken.safeTransferFrom(\n            address(msg.sender),\n            address(this),\n            _amount\n        );\n        user.amount = user.amount.add(_amount);\n        user.rewardDebt = user.amount.mul(pool.accSEVNPerShare).div(1e12);\n        emit Deposit(msg.sender, _pid, _amount);\n    }\n\n    // Withdraw LP tokens from MasterChef.\n    function withdraw(uint256 _pid, uint256 _amount) external {\n        PoolInfo storage pool = poolInfo[_pid];\n        UserInfo storage user = userInfo[_pid][msg.sender];\n        require(user.amount >= _amount, \"withdraw: not good\");\n\n        updatePool(_pid);\n\n        uint256 pending = user.amount.mul(pool.accSEVNPerShare).div(1e12).sub(\n            user.rewardDebt\n        );\n        safeSEVNTransfer(msg.sender, pending);\n        emit Harvest(msg.sender, _pid, pending);\n\n        user.amount = user.amount.sub(_amount);\n        user.rewardDebt = user.amount.mul(pool.accSEVNPerShare).div(1e12);\n        pool.lpToken.safeTransfer(address(msg.sender), _amount);\n        emit Withdraw(msg.sender, _pid, _amount);\n    }\n\n    // Withdraw without caring about rewards. EMERGENCY ONLY.\n    function emergencyWithdraw(uint256 _pid) external {\n        PoolInfo storage pool = poolInfo[_pid];\n        UserInfo storage user = userInfo[_pid][msg.sender];\n        pool.lpToken.safeTransfer(address(msg.sender), user.amount);\n        emit EmergencyWithdraw(msg.sender, _pid, user.amount);\n        user.amount = 0;\n        user.rewardDebt = 0;\n    }\n\n    // Safe SEVN transfer function, just in case if rounding error causes pool to not have enough SEVNs.\n    function safeSEVNTransfer(address _to, uint256 _amount) internal {\n        uint256 SEVNBal = SEVN.balanceOf(address(this));\n        if (_amount > SEVNBal) {\n            SEVN.transfer(_to, SEVNBal);\n        } else {\n            SEVN.transfer(_to, _amount);\n        }\n    }\n\n    function setMarketAddress(address _marketaddr) external onlyOwner {\n        marketaddr = _marketaddr;\n    }\n\n    function setTreasureAddress(address _treasureaddr) external onlyOwner {\n        treasureaddr = _treasureaddr;\n    }\n\n    function setSafuAddress(address _safuaddr) external onlyOwner {\n        safuaddr = _safuaddr;\n    }\n\n    function updateSevnPerSec(uint256 newAmount) external onlyOwner {\n        require(newAmount <= 1000 * 1e18, \"Max per second 1000 SEVN\");\n        require(newAmount >= 1 * 1e18, \"Min per second 1 SEVN\");\n        sevnPerSec = newAmount;\n        emit UpdateEmissionRate(msg.sender, newAmount);\n    }\n}\n",
    "sourcePath": "/Users/mac/Projects/sevn-finance/sevn-staking/contracts/MasterChef.sol",
    "compiler": {
        "name": "solc",
        "version": "0.8.4+commit.c7e474f2.Emscripten.clang"
    },
    "schemaVersion": "3.4.10",
    "updatedAt": "2022-11-19T18:32:39.538Z",
    "networkType": "ethereum",
    "devdoc": {
        "kind": "dev",
        "methods": {
            "owner()": {
                "details": "Returns the address of the current owner."
            },
            "renounceOwnership()": {
                "details": "Leaves the contract without owner. It will not be possible to call `onlyOwner` functions anymore. Can only be called by the current owner. NOTE: Renouncing ownership will leave the contract without an owner, thereby removing any functionality that is only available to the owner."
            },
            "transferOwnership(address)": {
                "details": "Transfers ownership of the contract to a new account (`newOwner`). Can only be called by the current owner."
            }
        },
        "version": 1
    },
    "userdoc": {
        "kind": "user",
        "methods": {},
        "version": 1
    }
}