{
  "contractName": "SevnFactory",
  "abi": [
    {
      "inputs": [
        {
          "internalType": "address",
          "name": "_feeToSetter",
          "type": "address"
        }
      ],
      "payable": false,
      "stateMutability": "nonpayable",
      "type": "constructor"
    },
    {
      "anonymous": false,
      "inputs": [
        {
          "indexed": true,
          "internalType": "address",
          "name": "token0",
          "type": "address"
        },
        {
          "indexed": true,
          "internalType": "address",
          "name": "token1",
          "type": "address"
        },
        {
          "indexed": false,
          "internalType": "address",
          "name": "pair",
          "type": "address"
        },
        {
          "indexed": false,
          "internalType": "uint256",
          "name": "",
          "type": "uint256"
        }
      ],
      "name": "PairCreated",
      "type": "event"
    },
    {
      "constant": true,
      "inputs": [
        {
          "internalType": "uint256",
          "name": "",
          "type": "uint256"
        }
      ],
      "name": "allPairs",
      "outputs": [
        {
          "internalType": "address",
          "name": "",
          "type": "address"
        }
      ],
      "payable": false,
      "stateMutability": "view",
      "type": "function"
    },
    {
      "constant": true,
      "inputs": [],
      "name": "devFee",
      "outputs": [
        {
          "internalType": "uint256",
          "name": "",
          "type": "uint256"
        }
      ],
      "payable": false,
      "stateMutability": "view",
      "type": "function"
    },
    {
      "constant": true,
      "inputs": [],
      "name": "feeTo",
      "outputs": [
        {
          "internalType": "address",
          "name": "",
          "type": "address"
        }
      ],
      "payable": false,
      "stateMutability": "view",
      "type": "function"
    },
    {
      "constant": true,
      "inputs": [],
      "name": "feeToSetter",
      "outputs": [
        {
          "internalType": "address",
          "name": "",
          "type": "address"
        }
      ],
      "payable": false,
      "stateMutability": "view",
      "type": "function"
    },
    {
      "constant": true,
      "inputs": [
        {
          "internalType": "address",
          "name": "",
          "type": "address"
        },
        {
          "internalType": "address",
          "name": "",
          "type": "address"
        }
      ],
      "name": "getPair",
      "outputs": [
        {
          "internalType": "address",
          "name": "",
          "type": "address"
        }
      ],
      "payable": false,
      "stateMutability": "view",
      "type": "function"
    },
    {
      "constant": true,
      "inputs": [],
      "name": "swapFee",
      "outputs": [
        {
          "internalType": "uint256",
          "name": "",
          "type": "uint256"
        }
      ],
      "payable": false,
      "stateMutability": "view",
      "type": "function"
    },
    {
      "constant": true,
      "inputs": [],
      "name": "allPairsLength",
      "outputs": [
        {
          "internalType": "uint256",
          "name": "",
          "type": "uint256"
        }
      ],
      "payable": false,
      "stateMutability": "view",
      "type": "function"
    },
    {
      "constant": false,
      "inputs": [
        {
          "internalType": "address",
          "name": "tokenA",
          "type": "address"
        },
        {
          "internalType": "address",
          "name": "tokenB",
          "type": "address"
        }
      ],
      "name": "createPair",
      "outputs": [
        {
          "internalType": "address",
          "name": "pair",
          "type": "address"
        }
      ],
      "payable": false,
      "stateMutability": "nonpayable",
      "type": "function"
    },
    {
      "constant": false,
      "inputs": [
        {
          "internalType": "address",
          "name": "_feeTo",
          "type": "address"
        }
      ],
      "name": "setFeeTo",
      "outputs": [],
      "payable": false,
      "stateMutability": "nonpayable",
      "type": "function"
    },
    {
      "constant": false,
      "inputs": [
        {
          "internalType": "address",
          "name": "_feeToSetter",
          "type": "address"
        }
      ],
      "name": "setFeeToSetter",
      "outputs": [],
      "payable": false,
      "stateMutability": "nonpayable",
      "type": "function"
    },
    {
      "constant": false,
      "inputs": [
        {
          "internalType": "uint256",
          "name": "_swapFee",
          "type": "uint256"
        }
      ],
      "name": "setSwapFee",
      "outputs": [],
      "payable": false,
      "stateMutability": "nonpayable",
      "type": "function"
    },
    {
      "constant": false,
      "inputs": [
        {
          "internalType": "uint256",
          "name": "_devFee",
          "type": "uint256"
        }
      ],
      "name": "setDevFee",
      "outputs": [],
      "payable": false,
      "stateMutability": "nonpayable",
      "type": "function"
    },
    {
      "constant": false,
      "inputs": [
        {
          "internalType": "address",
          "name": "_pair",
          "type": "address"
        },
        {
          "internalType": "bool",
          "name": "_enable",
          "type": "bool"
        }
      ],
      "name": "switchIndividualFee",
      "outputs": [],
      "payable": false,
      "stateMutability": "nonpayable",
      "type": "function"
    },
    {
      "constant": false,
      "inputs": [
        {
          "internalType": "address",
          "name": "_pair",
          "type": "address"
        },
        {
          "internalType": "uint256",
          "name": "_swapFee",
          "type": "uint256"
        }
      ],
      "name": "setIndividualSwapFee",
      "outputs": [],
      "payable": false,
      "stateMutability": "nonpayable",
      "type": "function"
    },
    {
      "constant": false,
      "inputs": [
        {
          "internalType": "address",
          "name": "_pair",
          "type": "address"
        },
        {
          "internalType": "uint256",
          "name": "_devFee",
          "type": "uint256"
        }
      ],
      "name": "setIndividualDevFee",
      "outputs": [],
      "payable": false,
      "stateMutability": "nonpayable",
      "type": "function"
    }
  ],
  "bytecode": "0x60806040526003600255600a60035534801561001a57600080fd5b506040516141613803806141618339818101604052602081101561003d57600080fd5b5051600180546001600160a01b0319166001600160a01b039092169190911790556140f48061006d6000396000f3fe608060405234801561001057600080fd5b50600436106100f55760003560e01c806354cf2aeb11610097578063a2e74af611610066578063a2e74af614610263578063c9c6539614610296578063e6a43905146102d1578063f46901ed1461030c576100f5565b806354cf2aeb14610200578063574f2ba31461021a578063626766cf146102225780636827e7641461025b576100f5565b80631c75b6b2116100d35780631c75b6b2146101705780631e3dd18b1461018d57806334e19907146101aa57806345903ddb146101c7576100f5565b8063014c7068146100fa578063017e7e5814610137578063094b741514610168575b600080fd5b6101356004803603604081101561011057600080fd5b5073ffffffffffffffffffffffffffffffffffffffff8135169060200135151561033f565b005b61013f610450565b6040805173ffffffffffffffffffffffffffffffffffffffff9092168252519081900360200190f35b61013f61046c565b6101356004803603602081101561018657600080fd5b5035610488565b61013f600480360360208110156101a357600080fd5b5035610583565b610135600480360360208110156101c057600080fd5b50356105b7565b610135600480360360408110156101dd57600080fd5b5073ffffffffffffffffffffffffffffffffffffffff81351690602001356106b2565b6102086107fb565b60408051918252519081900360200190f35b610208610801565b6101356004803603604081101561023857600080fd5b5073ffffffffffffffffffffffffffffffffffffffff8135169060200135610807565b610208610950565b6101356004803603602081101561027957600080fd5b503573ffffffffffffffffffffffffffffffffffffffff16610956565b61013f600480360360408110156102ac57600080fd5b5073ffffffffffffffffffffffffffffffffffffffff81358116916020013516610a23565b61013f600480360360408110156102e757600080fd5b5073ffffffffffffffffffffffffffffffffffffffff81358116916020013516610e76565b6101356004803603602081101561032257600080fd5b503573ffffffffffffffffffffffffffffffffffffffff16610ea9565b60015473ffffffffffffffffffffffffffffffffffffffff1633146103c557604080517f08c379a000000000000000000000000000000000000000000000000000000000815260206004820152600f60248201527f5365766e3a20464f5242494444454e0000000000000000000000000000000000604482015290519081900360640190fd5b604080517f9c0694920000000000000000000000000000000000000000000000000000000081528215156004820152905173ffffffffffffffffffffffffffffffffffffffff841691639c06949291602480830192600092919082900301818387803b15801561043457600080fd5b505af1158015610448573d6000803e3d6000fd5b505050505050565b60005473ffffffffffffffffffffffffffffffffffffffff1681565b60015473ffffffffffffffffffffffffffffffffffffffff1681565b60015473ffffffffffffffffffffffffffffffffffffffff16331461050e57604080517f08c379a000000000000000000000000000000000000000000000000000000000815260206004820152600f60248201527f5365766e3a20464f5242494444454e0000000000000000000000000000000000604482015290519081900360640190fd5b601481111561057e57604080517f08c379a000000000000000000000000000000000000000000000000000000000815260206004820152601460248201527f5365766e3a203c203025206f72203e20302e3225000000000000000000000000604482015290519081900360640190fd5b600355565b6005818154811061059057fe5b60009182526020909120015473ffffffffffffffffffffffffffffffffffffffff16905081565b60015473ffffffffffffffffffffffffffffffffffffffff16331461063d57604080517f08c379a000000000000000000000000000000000000000000000000000000000815260206004820152600f60248201527f5365766e3a20464f5242494444454e0000000000000000000000000000000000604482015290519081900360640190fd5b60058111156106ad57604080517f08c379a000000000000000000000000000000000000000000000000000000000815260206004820152601460248201527f5365766e3a203c203025206f72203e20302e3525000000000000000000000000604482015290519081900360640190fd5b600255565b60015473ffffffffffffffffffffffffffffffffffffffff16331461073857604080517f08c379a000000000000000000000000000000000000000000000000000000000815260206004820152600f60248201527f5365766e3a20464f5242494444454e0000000000000000000000000000000000604482015290519081900360640190fd5b60148111156107a857604080517f08c379a000000000000000000000000000000000000000000000000000000000815260206004820152601960248201527f5365766e3a2050414952203c203025206f72203e20302e322500000000000000604482015290519081900360640190fd5b8173ffffffffffffffffffffffffffffffffffffffff166390d6e270826040518263ffffffff1660e01b815260040180828152602001915050600060405180830381600087803b15801561043457600080fd5b60025481565b60055490565b60015473ffffffffffffffffffffffffffffffffffffffff16331461088d57604080517f08c379a000000000000000000000000000000000000000000000000000000000815260206004820152600f60248201527f5365766e3a20464f5242494444454e0000000000000000000000000000000000604482015290519081900360640190fd5b60058111156108fd57604080517f08c379a000000000000000000000000000000000000000000000000000000000815260206004820152601960248201527f5365766e3a2050414952203c203025206f72203e20302e352500000000000000604482015290519081900360640190fd5b8173ffffffffffffffffffffffffffffffffffffffff16634f840b63826040518263ffffffff1660e01b815260040180828152602001915050600060405180830381600087803b15801561043457600080fd5b60035481565b60015473ffffffffffffffffffffffffffffffffffffffff1633146109dc57604080517f08c379a000000000000000000000000000000000000000000000000000000000815260206004820152600f60248201527f5365766e3a20464f5242494444454e0000000000000000000000000000000000604482015290519081900360640190fd5b600180547fffffffffffffffffffffffff00000000000000000000000000000000000000001673ffffffffffffffffffffffffffffffffffffffff92909216919091179055565b60008173ffffffffffffffffffffffffffffffffffffffff168373ffffffffffffffffffffffffffffffffffffffff161415610ac057604080517f08c379a000000000000000000000000000000000000000000000000000000000815260206004820152601960248201527f5365766e3a204944454e544943414c5f41444452455353455300000000000000604482015290519081900360640190fd5b6000808373ffffffffffffffffffffffffffffffffffffffff168573ffffffffffffffffffffffffffffffffffffffff1610610afd578385610b00565b84845b909250905073ffffffffffffffffffffffffffffffffffffffff8216610b8757604080517f08c379a000000000000000000000000000000000000000000000000000000000815260206004820152601260248201527f5365766e3a205a45524f5f414444524553530000000000000000000000000000604482015290519081900360640190fd5b73ffffffffffffffffffffffffffffffffffffffff828116600090815260046020908152604080832085851684529091529020541615610c2857604080517f08c379a000000000000000000000000000000000000000000000000000000000815260206004820152601160248201527f5365766e3a20504149525f455849535453000000000000000000000000000000604482015290519081900360640190fd5b606060405180602001610c3a90610f76565b6020820181038252601f19601f82011660405250905060008383604051602001808373ffffffffffffffffffffffffffffffffffffffff1673ffffffffffffffffffffffffffffffffffffffff1660601b81526014018273ffffffffffffffffffffffffffffffffffffffff1673ffffffffffffffffffffffffffffffffffffffff1660601b815260140192505050604051602081830303815290604052805190602001209050808251602084016000f5604080517f485cc95500000000000000000000000000000000000000000000000000000000815273ffffffffffffffffffffffffffffffffffffffff8781166004830152868116602483015291519297509087169163485cc9559160448082019260009290919082900301818387803b158015610d6757600080fd5b505af1158015610d7b573d6000803e3d6000fd5b5050505073ffffffffffffffffffffffffffffffffffffffff84811660008181526004602081815260408084208987168086529083528185208054978d167fffffffffffffffffffffffff000000000000000000000000000000000000000098891681179091559383528185208686528352818520805488168517905560058054600181018255958190527f036b6384b5eca791c62761152d0c79bb0604c104a5fb6f4eb0703f3154bb3db090950180549097168417909655925483519283529082015281517f0d3648bd0f6ba80134a33ba9275ac585d9d315f0ad8355cddefde31afa28d0e9929181900390910190a35050505092915050565b600460209081526000928352604080842090915290825290205473ffffffffffffffffffffffffffffffffffffffff1681565b60015473ffffffffffffffffffffffffffffffffffffffff163314610f2f57604080517f08c379a000000000000000000000000000000000000000000000000000000000815260206004820152600f60248201527f5365766e3a20464f5242494444454e0000000000000000000000000000000000604482015290519081900360640190fd5b600080547fffffffffffffffffffffffff00000000000000000000000000000000000000001673ffffffffffffffffffffffffffffffffffffffff92909216919091179055565b61313c80610f848339019056fe6080604052600c805460ff191690556003600d55600a600e556001600f5534801561002957600080fd5b5060405146908060526130ea8239604080519182900360520182208282018252600f83526e5365766e46696e616e6365204c507360881b6020938401528151808301835260018152603160f81b908401528151808401919091527f5a4d59205a7d552b83c3641fc600817cb80f0f0285ffeaa6df76564102e87ed7818301527fc89efdaa54c0f20c7adf612882df0950f5a951637e0307cdcb4c672f298b8bc6606082015260808101949094523060a0808601919091528151808603909101815260c09094019052825192019190912060035550600580546001600160a01b03191633179055612fcc8061011e6000396000f3fe608060405234801561001057600080fd5b506004361061020b5760003560e01c806370a082311161012a578063ba9a7a56116100bd578063d21220a71161008c578063d505accf11610071578063d505accf146106a5578063dd62ed3e14610703578063fff6cae91461073e5761020b565b8063d21220a714610695578063d4cadf681461069d5761020b565b8063ba9a7a561461064a578063bc25cf7714610652578063c45a015514610685578063c7287e9d1461068d5761020b565b806390d6e270116100f957806390d6e270146105cd57806395d89b41146105ea5780639c069492146105f2578063a9059cbb146106115761020b565b806370a08231146105135780637464fc3d146105465780637ecebe001461054e57806389afcb44146105815761020b565b8063313ce567116101a25780635909c0d5116101715780635909c0d5146104c85780635a3d5493146104d0578063616aa8f9146104d85780636a627842146104e05761020b565b8063313ce5671461044a5780633644e51514610468578063485cc955146104705780634f840b63146104ab5761020b565b80630dfe1681116101de5780630dfe1681146103b457806318160ddd146103e557806323b872dd146103ff57806330adf81f146104425761020b565b8063022c0d9f1461021057806306fdde03146102ab5780630902f1ac14610328578063095ea7b314610367575b600080fd5b6102a96004803603608081101561022657600080fd5b81359160208101359173ffffffffffffffffffffffffffffffffffffffff604083013516919081019060808101606082013564010000000081111561026a57600080fd5b82018360208201111561027c57600080fd5b8035906020019184600183028401116401000000008311171561029e57600080fd5b509092509050610746565b005b6102b3610e67565b6040805160208082528351818301528351919283929083019185019080838360005b838110156102ed5781810151838201526020016102d5565b50505050905090810190601f16801561031a5780820380516001836020036101000a031916815260200191505b509250505060405180910390f35b610330610ea0565b604080516dffffffffffffffffffffffffffff948516815292909316602083015263ffffffff168183015290519081900360600190f35b6103a06004803603604081101561037d57600080fd5b5073ffffffffffffffffffffffffffffffffffffffff8135169060200135610ef5565b604080519115158252519081900360200190f35b6103bc610f0c565b6040805173ffffffffffffffffffffffffffffffffffffffff9092168252519081900360200190f35b6103ed610f28565b60408051918252519081900360200190f35b6103a06004803603606081101561041557600080fd5b5073ffffffffffffffffffffffffffffffffffffffff813581169160208101359091169060400135610f2e565b6103ed61100d565b610452611031565b6040805160ff9092168252519081900360200190f35b6103ed611036565b6102a96004803603604081101561048657600080fd5b5073ffffffffffffffffffffffffffffffffffffffff8135811691602001351661103c565b6102a9600480360360208110156104c157600080fd5b5035611115565b6103ed6111a0565b6103ed6111a6565b6103a06111ac565b6103ed600480360360208110156104f657600080fd5b503573ffffffffffffffffffffffffffffffffffffffff166111b5565b6103ed6004803603602081101561052957600080fd5b503573ffffffffffffffffffffffffffffffffffffffff1661156f565b6103ed611581565b6103ed6004803603602081101561056457600080fd5b503573ffffffffffffffffffffffffffffffffffffffff16611587565b6105b46004803603602081101561059757600080fd5b503573ffffffffffffffffffffffffffffffffffffffff16611599565b6040805192835260208301919091528051918290030190f35b6102a9600480360360208110156105e357600080fd5b5035611a36565b6102b3611ac1565b6102a96004803603602081101561060857600080fd5b50351515611afa565b6103a06004803603604081101561062757600080fd5b5073ffffffffffffffffffffffffffffffffffffffff8135169060200135611bb1565b6103ed611bbe565b6102a96004803603602081101561066857600080fd5b503573ffffffffffffffffffffffffffffffffffffffff16611bc4565b6103bc611dba565b6103ed611dd6565b6103bc611e8b565b6103ed611ea7565b6102a9600480360360e08110156106bb57600080fd5b5073ffffffffffffffffffffffffffffffffffffffff813581169160208101359091169060408101359060608101359060ff6080820135169060a08101359060c00135611f23565b6103ed6004803603604081101561071957600080fd5b5073ffffffffffffffffffffffffffffffffffffffff813581169160200135166121ef565b6102a961220c565b600f546001146107b757604080517f08c379a000000000000000000000000000000000000000000000000000000000815260206004820152600c60248201527f5365766e3a204c4f434b45440000000000000000000000000000000000000000604482015290519081900360640190fd5b6000600f55841515806107ca5750600084115b61083557604080517f08c379a000000000000000000000000000000000000000000000000000000000815260206004820181905260248201527f5365766e3a20494e53554646494349454e545f4f55545055545f414d4f554e54604482015290519081900360640190fd5b600080610840610ea0565b5091509150816dffffffffffffffffffffffffffff16871080156108735750806dffffffffffffffffffffffffffff1686105b6108de57604080517f08c379a000000000000000000000000000000000000000000000000000000000815260206004820152601c60248201527f5365766e3a20494e53554646494349454e545f4c495155494449545900000000604482015290519081900360640190fd5b600654600754600091829173ffffffffffffffffffffffffffffffffffffffff91821691908116908916821480159061094357508073ffffffffffffffffffffffffffffffffffffffff168973ffffffffffffffffffffffffffffffffffffffff1614155b6109ae57604080517f08c379a000000000000000000000000000000000000000000000000000000000815260206004820152601060248201527f5365766e3a20494e56414c49445f544f00000000000000000000000000000000604482015290519081900360640190fd5b8a156109bf576109bf828a8d6123f2565b89156109d0576109d0818a8c6123f2565b8615610ab2578873ffffffffffffffffffffffffffffffffffffffff16634ce81478338d8d8c8c6040518663ffffffff1660e01b8152600401808673ffffffffffffffffffffffffffffffffffffffff1673ffffffffffffffffffffffffffffffffffffffff168152602001858152602001848152602001806020018281038252848482818152602001925080828437600081840152601f19601f8201169050808301925050509650505050505050600060405180830381600087803b158015610a9957600080fd5b505af1158015610aad573d6000803e3d6000fd5b505050505b604080517f70a08231000000000000000000000000000000000000000000000000000000008152306004820152905173ffffffffffffffffffffffffffffffffffffffff8416916370a08231916024808301926020929190829003018186803b158015610b1e57600080fd5b505afa158015610b32573d6000803e3d6000fd5b505050506040513d6020811015610b4857600080fd5b5051604080517f70a08231000000000000000000000000000000000000000000000000000000008152306004820152905191955073ffffffffffffffffffffffffffffffffffffffff8316916370a0823191602480820192602092909190829003018186803b158015610bba57600080fd5b505afa158015610bce573d6000803e3d6000fd5b505050506040513d6020811015610be457600080fd5b5051925060009150506dffffffffffffffffffffffffffff85168a90038311610c0e576000610c24565b89856dffffffffffffffffffffffffffff160383035b9050600089856dffffffffffffffffffffffffffff16038311610c48576000610c5e565b89856dffffffffffffffffffffffffffff160383035b90506000821180610c6f5750600081115b610cda57604080517f08c379a000000000000000000000000000000000000000000000000000000000815260206004820152601f60248201527f5365766e3a20494e53554646494349454e545f494e5055545f414d4f554e5400604482015290519081900360640190fd5b6000610ce4611ea7565b90506000610d19610cfb858463ffffffff6125ff16565b610d0d886103e863ffffffff6125ff16565b9063ffffffff61268516565b90506000610d30610cfb858563ffffffff6125ff16565b9050610d68620f4240610d5c6dffffffffffffffffffffffffffff8c8116908c1663ffffffff6125ff16565b9063ffffffff6125ff16565b610d78838363ffffffff6125ff16565b1015610de557604080517f08c379a000000000000000000000000000000000000000000000000000000000815260206004820152600760248201527f5365766e3a204b00000000000000000000000000000000000000000000000000604482015290519081900360640190fd5b505050610df4848488886126f7565b60408051838152602081018390528082018d9052606081018c9052905173ffffffffffffffffffffffffffffffffffffffff8b169133917fd78ad95fa46c994b6551d0da85fc275fe613ce37657fb8d5e3d130840159d8229181900360800190a350506001600f55505050505050505050565b6040518060400160405280600f81526020017f5365766e46696e616e6365204c5073000000000000000000000000000000000081525081565b6008546dffffffffffffffffffffffffffff808216926e0100000000000000000000000000008304909116917c0100000000000000000000000000000000000000000000000000000000900463ffffffff1690565b6000610f023384846129b3565b5060015b92915050565b60065473ffffffffffffffffffffffffffffffffffffffff1681565b60005481565b73ffffffffffffffffffffffffffffffffffffffff831660009081526002602090815260408083203384529091528120547fffffffffffffffffffffffffffffffffffffffffffffffffffffffffffffffff14610ff85773ffffffffffffffffffffffffffffffffffffffff84166000908152600260209081526040808320338452909152902054610fc6908363ffffffff61268516565b73ffffffffffffffffffffffffffffffffffffffff851660009081526002602090815260408083203384529091529020555b611003848484612a22565b5060019392505050565b7f6e71edae12b1b97f4d1f60370fef10105fa2faae0126114a169c64845d6126c981565b601281565b60035481565b60055473ffffffffffffffffffffffffffffffffffffffff1633146110c257604080517f08c379a000000000000000000000000000000000000000000000000000000000815260206004820152600f60248201527f5365766e3a20464f5242494444454e0000000000000000000000000000000000604482015290519081900360640190fd5b6006805473ffffffffffffffffffffffffffffffffffffffff9384167fffffffffffffffffffffffff00000000000000000000000000000000000000009182161790915560078054929093169116179055565b60055473ffffffffffffffffffffffffffffffffffffffff16331461119b57604080517f08c379a000000000000000000000000000000000000000000000000000000000815260206004820152600f60248201527f5365766e3a20464f5242494444454e0000000000000000000000000000000000604482015290519081900360640190fd5b600d55565b60095481565b600a5481565b600c5460ff1681565b6000600f5460011461122857604080517f08c379a000000000000000000000000000000000000000000000000000000000815260206004820152600c60248201527f5365766e3a204c4f434b45440000000000000000000000000000000000000000604482015290519081900360640190fd5b6000600f81905580611238610ea0565b50600654604080517f70a08231000000000000000000000000000000000000000000000000000000008152306004820152905193955091935060009273ffffffffffffffffffffffffffffffffffffffff909116916370a08231916024808301926020929190829003018186803b1580156112b257600080fd5b505afa1580156112c6573d6000803e3d6000fd5b505050506040513d60208110156112dc57600080fd5b5051600754604080517f70a08231000000000000000000000000000000000000000000000000000000008152306004820152905192935060009273ffffffffffffffffffffffffffffffffffffffff909216916370a0823191602480820192602092909190829003018186803b15801561135557600080fd5b505afa158015611369573d6000803e3d6000fd5b505050506040513d602081101561137f57600080fd5b5051905060006113a5836dffffffffffffffffffffffffffff871663ffffffff61268516565b905060006113c9836dffffffffffffffffffffffffffff871663ffffffff61268516565b905060006113d78787612b03565b60005490915080611414576114006103e8610d0d6113fb878763ffffffff6125ff16565b612c9b565b985061140f60006103e8612ced565b611471565b61146e6dffffffffffffffffffffffffffff8916611438868463ffffffff6125ff16565b8161143f57fe5b046dffffffffffffffffffffffffffff8916611461868563ffffffff6125ff16565b8161146857fe5b04612d9d565b98505b600089116114ca576040517f08c379a0000000000000000000000000000000000000000000000000000000008152600401808060200182810382526023815260200180612f756023913960400191505060405180910390fd5b6114d48a8a612ced565b6114e086868a8a6126f7565b81156115225760085461151e906dffffffffffffffffffffffffffff808216916e01000000000000000000000000000090041663ffffffff6125ff16565b600b555b6040805185815260208101859052815133927f4c209b5fc8ad50758f13e2e1088ba56a560dff690a1c6fef26394f4c03821c4f928290030190a250506001600f5550949695505050505050565b60016020526000908152604090205481565b600b5481565b60046020526000908152604090205481565b600080600f5460011461160d57604080517f08c379a000000000000000000000000000000000000000000000000000000000815260206004820152600c60248201527f5365766e3a204c4f434b45440000000000000000000000000000000000000000604482015290519081900360640190fd5b6000600f8190558061161d610ea0565b50600654600754604080517f70a08231000000000000000000000000000000000000000000000000000000008152306004820152905194965092945073ffffffffffffffffffffffffffffffffffffffff9182169391169160009184916370a08231916024808301926020929190829003018186803b15801561169f57600080fd5b505afa1580156116b3573d6000803e3d6000fd5b505050506040513d60208110156116c957600080fd5b5051604080517f70a08231000000000000000000000000000000000000000000000000000000008152306004820152905191925060009173ffffffffffffffffffffffffffffffffffffffff8516916370a08231916024808301926020929190829003018186803b15801561173d57600080fd5b505afa158015611751573d6000803e3d6000fd5b505050506040513d602081101561176757600080fd5b5051306000908152600160205260408120549192506117868888612b03565b6000549091508061179d848763ffffffff6125ff16565b816117a457fe5b049a50806117b8848663ffffffff6125ff16565b816117bf57fe5b04995060008b1180156117d2575060008a115b611827576040517f08c379a0000000000000000000000000000000000000000000000000000000008152600401808060200182810382526023815260200180612f526023913960400191505060405180910390fd5b6118313084612db5565b61183c878d8d6123f2565b611847868d8c6123f2565b604080517f70a08231000000000000000000000000000000000000000000000000000000008152306004820152905173ffffffffffffffffffffffffffffffffffffffff8916916370a08231916024808301926020929190829003018186803b1580156118b357600080fd5b505afa1580156118c7573d6000803e3d6000fd5b505050506040513d60208110156118dd57600080fd5b5051604080517f70a08231000000000000000000000000000000000000000000000000000000008152306004820152905191965073ffffffffffffffffffffffffffffffffffffffff8816916370a0823191602480820192602092909190829003018186803b15801561194f57600080fd5b505afa158015611963573d6000803e3d6000fd5b505050506040513d602081101561197957600080fd5b5051935061198985858b8b6126f7565b81156119cb576008546119c7906dffffffffffffffffffffffffffff808216916e01000000000000000000000000000090041663ffffffff6125ff16565b600b555b604080518c8152602081018c9052815173ffffffffffffffffffffffffffffffffffffffff8f169233927fdccd412f0b1252819cb1fd330b93224ca42612892bb3f4f789976e6d81936496929081900390910190a35050505050505050506001600f81905550915091565b60055473ffffffffffffffffffffffffffffffffffffffff163314611abc57604080517f08c379a000000000000000000000000000000000000000000000000000000000815260206004820152600f60248201527f5365766e3a20464f5242494444454e0000000000000000000000000000000000604482015290519081900360640190fd5b600e55565b6040518060400160405280600781526020017f5345564e2d4c500000000000000000000000000000000000000000000000000081525081565b60055473ffffffffffffffffffffffffffffffffffffffff163314611b8057604080517f08c379a000000000000000000000000000000000000000000000000000000000815260206004820152600f60248201527f5365766e3a20464f5242494444454e0000000000000000000000000000000000604482015290519081900360640190fd5b600c80547fffffffffffffffffffffffffffffffffffffffffffffffffffffffffffffff0016911515919091179055565b6000610f02338484612a22565b6103e881565b600f54600114611c3557604080517f08c379a000000000000000000000000000000000000000000000000000000000815260206004820152600c60248201527f5365766e3a204c4f434b45440000000000000000000000000000000000000000604482015290519081900360640190fd5b6000600f55600654600754600854604080517f70a08231000000000000000000000000000000000000000000000000000000008152306004820152905173ffffffffffffffffffffffffffffffffffffffff9485169490931692611d119285928792611d0c926dffffffffffffffffffffffffffff169185916370a0823191602480820192602092909190829003018186803b158015611cd457600080fd5b505afa158015611ce8573d6000803e3d6000fd5b505050506040513d6020811015611cfe57600080fd5b50519063ffffffff61268516565b6123f2565b600854604080517f70a082310000000000000000000000000000000000000000000000000000000081523060048201529051611db09284928792611d0c926e01000000000000000000000000000090046dffffffffffffffffffffffffffff169173ffffffffffffffffffffffffffffffffffffffff8616916370a0823191602480820192602092909190829003018186803b158015611cd457600080fd5b50506001600f5550565b60055473ffffffffffffffffffffffffffffffffffffffff1681565b600c5460009060ff16611e8257600560009054906101000a900473ffffffffffffffffffffffffffffffffffffffff1673ffffffffffffffffffffffffffffffffffffffff16636827e7646040518163ffffffff1660e01b815260040160206040518083038186803b158015611e4b57600080fd5b505afa158015611e5f573d6000803e3d6000fd5b505050506040513d6020811015611e7557600080fd5b505163ffffffff16611e86565b600e545b905090565b60075473ffffffffffffffffffffffffffffffffffffffff1681565b600c5460009060ff16611f1c57600560009054906101000a900473ffffffffffffffffffffffffffffffffffffffff1673ffffffffffffffffffffffffffffffffffffffff166354cf2aeb6040518163ffffffff1660e01b815260040160206040518083038186803b158015611e4b57600080fd5b50600d5490565b42841015611f9257604080517f08c379a000000000000000000000000000000000000000000000000000000000815260206004820152600d60248201527f5365766e3a204558504952454400000000000000000000000000000000000000604482015290519081900360640190fd5b60035473ffffffffffffffffffffffffffffffffffffffff80891660008181526004602090815260408083208054600180820190925582517f6e71edae12b1b97f4d1f60370fef10105fa2faae0126114a169c64845d6126c98186015280840196909652958d166060860152608085018c905260a085019590955260c08085018b90528151808603909101815260e0850182528051908301207f19010000000000000000000000000000000000000000000000000000000000006101008601526101028501969096526101228085019690965280518085039096018652610142840180825286519683019690962095839052610162840180825286905260ff89166101828501526101a284018890526101c28401879052519193926101e2808201937fffffffffffffffffffffffffffffffffffffffffffffffffffffffffffffffe081019281900390910190855afa1580156120f3573d6000803e3d6000fd5b50506040517fffffffffffffffffffffffffffffffffffffffffffffffffffffffffffffffe0015191505073ffffffffffffffffffffffffffffffffffffffff81161580159061216e57508873ffffffffffffffffffffffffffffffffffffffff168173ffffffffffffffffffffffffffffffffffffffff16145b6121d957604080517f08c379a000000000000000000000000000000000000000000000000000000000815260206004820152601760248201527f5365766e3a20494e56414c49445f5349474e4154555245000000000000000000604482015290519081900360640190fd5b6121e48989896129b3565b505050505050505050565b600260209081526000928352604080842090915290825290205481565b600f5460011461227d57604080517f08c379a000000000000000000000000000000000000000000000000000000000815260206004820152600c60248201527f5365766e3a204c4f434b45440000000000000000000000000000000000000000604482015290519081900360640190fd5b6000600f55600654604080517f70a0823100000000000000000000000000000000000000000000000000000000815230600482015290516123eb9273ffffffffffffffffffffffffffffffffffffffff16916370a08231916024808301926020929190829003018186803b1580156122f457600080fd5b505afa158015612308573d6000803e3d6000fd5b505050506040513d602081101561231e57600080fd5b5051600754604080517f70a08231000000000000000000000000000000000000000000000000000000008152306004820152905173ffffffffffffffffffffffffffffffffffffffff909216916370a0823191602480820192602092909190829003018186803b15801561239157600080fd5b505afa1580156123a5573d6000803e3d6000fd5b505050506040513d60208110156123bb57600080fd5b50516008546dffffffffffffffffffffffffffff808216916e0100000000000000000000000000009004166126f7565b6001600f55565b604080518082018252601981527f7472616e7366657228616464726573732c75696e743235362900000000000000602091820152815173ffffffffffffffffffffffffffffffffffffffff85811660248301526044808301869052845180840390910181526064909201845291810180517bffffffffffffffffffffffffffffffffffffffffffffffffffffffff167fa9059cbb000000000000000000000000000000000000000000000000000000001781529251815160009460609489169392918291908083835b602083106124f857805182527fffffffffffffffffffffffffffffffffffffffffffffffffffffffffffffffe090920191602091820191016124bb565b6001836020036101000a0380198251168184511680821785525050505050509050019150506000604051808303816000865af19150503d806000811461255a576040519150601f19603f3d011682016040523d82523d6000602084013e61255f565b606091505b509150915081801561258d57508051158061258d575080806020019051602081101561258a57600080fd5b50515b6125f857604080517f08c379a000000000000000000000000000000000000000000000000000000000815260206004820152601560248201527f5365766e3a205452414e534645525f4641494c45440000000000000000000000604482015290519081900360640190fd5b5050505050565b600081158061261a5750508082028282828161261757fe5b04145b610f0657604080517f08c379a000000000000000000000000000000000000000000000000000000000815260206004820152601460248201527f64732d6d6174682d6d756c2d6f766572666c6f77000000000000000000000000604482015290519081900360640190fd5b80820382811115610f0657604080517f08c379a000000000000000000000000000000000000000000000000000000000815260206004820152601560248201527f64732d6d6174682d7375622d756e646572666c6f770000000000000000000000604482015290519081900360640190fd5b6dffffffffffffffffffffffffffff841180159061272357506dffffffffffffffffffffffffffff8311155b61278e57604080517f08c379a000000000000000000000000000000000000000000000000000000000815260206004820152600e60248201527f5365766e3a204f564552464c4f57000000000000000000000000000000000000604482015290519081900360640190fd5b60085463ffffffff428116917c0100000000000000000000000000000000000000000000000000000000900481168203908116158015906127de57506dffffffffffffffffffffffffffff841615155b80156127f957506dffffffffffffffffffffffffffff831615155b156128a9578063ffffffff1661283c8561281286612e7a565b7bffffffffffffffffffffffffffffffffffffffffffffffffffffffff169063ffffffff612e9e16565b600980547bffffffffffffffffffffffffffffffffffffffffffffffffffffffff929092169290920201905563ffffffff811661287c8461281287612e7a565b600a80547bffffffffffffffffffffffffffffffffffffffffffffffffffffffff92909216929092020190555b600880547fffffffffffffffffffffffffffffffffffff0000000000000000000000000000166dffffffffffffffffffffffffffff888116919091177fffffffff0000000000000000000000000000ffffffffffffffffffffffffffff166e0100000000000000000000000000008883168102919091177bffffffffffffffffffffffffffffffffffffffffffffffffffffffff167c010000000000000000000000000000000000000000000000000000000063ffffffff871602179283905560408051848416815291909304909116602082015281517f1c411e9a96e071241c2f21f7726b17ae89e3cab4c78be50e062b03a9fffbbad1929181900390910190a1505050505050565b73ffffffffffffffffffffffffffffffffffffffff808416600081815260026020908152604080832094871680845294825291829020859055815185815291517f8c5be1e5ebec7d5bd14f71427d1e84f3dd0314c0f7b2291e5b200ac8c7c3b9259281900390910190a3505050565b73ffffffffffffffffffffffffffffffffffffffff8316600090815260016020526040902054612a58908263ffffffff61268516565b73ffffffffffffffffffffffffffffffffffffffff8085166000908152600160205260408082209390935590841681522054612a9a908263ffffffff612edf16565b73ffffffffffffffffffffffffffffffffffffffff80841660008181526001602090815260409182902094909455805185815290519193928716927fddf252ad1be2c89b69c2b068fc378daa952ba7f163c4a11628f55a4df523b3ef92918290030190a3505050565b600080600560009054906101000a900473ffffffffffffffffffffffffffffffffffffffff1673ffffffffffffffffffffffffffffffffffffffff1663017e7e586040518163ffffffff1660e01b815260040160206040518083038186803b158015612b6e57600080fd5b505afa158015612b82573d6000803e3d6000fd5b505050506040513d6020811015612b9857600080fd5b5051600b5473ffffffffffffffffffffffffffffffffffffffff8216151593509091506000612bc5611dd6565b90508315612c86578115612c81576000612bfb6113fb6dffffffffffffffffffffffffffff89811690891663ffffffff6125ff16565b90506000612c0884612c9b565b905080821115612c7e576000612c36612c27848463ffffffff61268516565b6000549063ffffffff6125ff16565b90506000612c5a83612c4e868863ffffffff6125ff16565b9063ffffffff612edf16565b90506000818381612c6757fe5b0490508015612c7a57612c7a8882612ced565b5050505b50505b612c92565b8115612c92576000600b555b50505092915050565b60006003821115612cde575080600160028204015b81811015612cd857809150600281828581612cc757fe5b040181612cd057fe5b049050612cb0565b50612ce8565b8115612ce8575060015b919050565b600054612d00908263ffffffff612edf16565b600090815573ffffffffffffffffffffffffffffffffffffffff8316815260016020526040902054612d38908263ffffffff612edf16565b73ffffffffffffffffffffffffffffffffffffffff831660008181526001602090815260408083209490945583518581529351929391927fddf252ad1be2c89b69c2b068fc378daa952ba7f163c4a11628f55a4df523b3ef9281900390910190a35050565b6000818310612dac5781612dae565b825b9392505050565b73ffffffffffffffffffffffffffffffffffffffff8216600090815260016020526040902054612deb908263ffffffff61268516565b73ffffffffffffffffffffffffffffffffffffffff831660009081526001602052604081209190915554612e25908263ffffffff61268516565b600090815560408051838152905173ffffffffffffffffffffffffffffffffffffffff8516917fddf252ad1be2c89b69c2b068fc378daa952ba7f163c4a11628f55a4df523b3ef919081900360200190a35050565b6dffffffffffffffffffffffffffff166e0100000000000000000000000000000290565b60006dffffffffffffffffffffffffffff82167bffffffffffffffffffffffffffffffffffffffffffffffffffffffff841681612ed757fe5b049392505050565b80820182811015610f0657604080517f08c379a000000000000000000000000000000000000000000000000000000000815260206004820152601460248201527f64732d6d6174682d6164642d6f766572666c6f77000000000000000000000000604482015290519081900360640190fdfe5365766e3a20494e53554646494349454e545f4c49515549444954595f4255524e45445365766e3a20494e53554646494349454e545f4c49515549444954595f4d494e544544a265627a7a7231582026f43b3e78a50a55b740dfc1a3f20c7fc969000112265d53be32e93a141620e664736f6c63430005100032454950373132446f6d61696e28737472696e67206e616d652c737472696e672076657273696f6e2c75696e7432353620636861696e49642c6164647265737320766572696679696e67436f6e747261637429a265627a7a72315820c84c5c2c71c3097b4fd3559ac9ab0e269f6c4d49358f5c640fee508f5be1e48964736f6c63430005100032",
  "source": "// SPDX-License-Identifier: MIT\r\n\r\npragma solidity =0.5.16;\r\n\r\nimport './interfaces/ISevnFactory.sol';\r\nimport './SevnPair.sol';\r\n\r\ncontract SevnFactory is ISevnFactory {\r\n    \r\n    address public feeTo;\r\n    address public feeToSetter;\r\n\r\n    uint256 public swapFee = 3; // uses 0.3% default\r\n    uint256 public devFee = 10; // uses 0.1% default from swapFee\r\n\r\n    mapping(address => mapping(address => address)) public getPair;\r\n    address[] public allPairs;\r\n\r\n    event PairCreated(address indexed token0, address indexed token1, address pair, uint);\r\n\r\n    constructor(address _feeToSetter) public {\r\n        feeToSetter = _feeToSetter;\r\n    }\r\n\r\n    function allPairsLength() external view returns (uint) {\r\n        return allPairs.length;\r\n    }\r\n\r\n    function createPair(address tokenA, address tokenB) external returns (address pair) {\r\n        require(tokenA != tokenB, 'Sevn: IDENTICAL_ADDRESSES');\r\n        (address token0, address token1) = tokenA < tokenB ? (tokenA, tokenB) : (tokenB, tokenA);\r\n        require(token0 != address(0), 'Sevn: ZERO_ADDRESS');\r\n        require(getPair[token0][token1] == address(0), 'Sevn: PAIR_EXISTS'); // single check is sufficient\r\n        bytes memory bytecode = type(SevnPair).creationCode;\r\n        bytes32 salt = keccak256(abi.encodePacked(token0, token1));\r\n        assembly {\r\n            pair := create2(0, add(bytecode, 32), mload(bytecode), salt)\r\n        }\r\n        ISevnPair(pair).initialize(token0, token1);\r\n        getPair[token0][token1] = pair;\r\n        getPair[token1][token0] = pair; // populate mapping in the reverse direction\r\n        allPairs.push(pair);\r\n        emit PairCreated(token0, token1, pair, allPairs.length);\r\n    }\r\n\r\n    function setFeeTo(address _feeTo) external {\r\n        require(msg.sender == feeToSetter, 'Sevn: FORBIDDEN');\r\n        feeTo = _feeTo;\r\n    }\r\n\r\n    function setFeeToSetter(address _feeToSetter) external {\r\n        require(msg.sender == feeToSetter, 'Sevn: FORBIDDEN');\r\n        feeToSetter = _feeToSetter;\r\n    }\r\n\r\n    function setSwapFee(uint256 _swapFee) external {\r\n        require(msg.sender == feeToSetter, 'Sevn: FORBIDDEN');\r\n        require(_swapFee >= 0 && _swapFee <= 5, 'Sevn: < 0% or > 0.5%');\r\n        swapFee = _swapFee;\r\n    }\r\n\r\n    function setDevFee(uint256 _devFee) external {\r\n        require(msg.sender == feeToSetter, 'Sevn: FORBIDDEN');\r\n        require(_devFee >= 0 && _devFee <= 20, 'Sevn: < 0% or > 0.2%');\r\n        devFee = _devFee;\r\n    }\r\n\r\n    function switchIndividualFee(address _pair, bool _enable) external {\r\n        require(msg.sender == feeToSetter, 'Sevn: FORBIDDEN');\r\n        SevnPair(_pair).switchIndividualFee(_enable);\r\n    }\r\n\r\n    function setIndividualSwapFee(address _pair, uint256 _swapFee) external {\r\n        require(msg.sender == feeToSetter, 'Sevn: FORBIDDEN');\r\n        require(_swapFee >= 0 && _swapFee <= 5, 'Sevn: PAIR < 0% or > 0.5%');\r\n        SevnPair(_pair).setIndividualSwapFee(_swapFee);\r\n    }\r\n\r\n    function setIndividualDevFee(address _pair, uint256 _devFee) external {\r\n        require(msg.sender == feeToSetter, 'Sevn: FORBIDDEN');\r\n        require(_devFee >= 0 && _devFee <= 20, 'Sevn: PAIR < 0% or > 0.2%');\r\n        SevnPair(_pair).setIndividualDevFee(_devFee);(_devFee);\r\n\r\n    }\r\n}\r\n",
  "sourcePath": "E:\\Projects\\sevn-finance\\sevn-core\\contracts\\SevnFactory.sol",
  "compiler": {
    "name": "solc",
    "version": "0.5.16+commit.9c3226ce.Emscripten.clang"
  },
  "schemaVersion": "3.4.9",
  "updatedAt": "2022-09-05T16:22:29.887Z",
  "devdoc": {
    "methods": {}
  },
  "userdoc": {
    "methods": {}
  }
}